:030000000209F4FE
:0C09F400787FE4F6D8FD75810E0209241E
:1009E0003F065B4F666D7D077F6FBF86CBCFEFED18
:0409F000FD87FFDFA1
:0D095B0075F00A84E5F093F5807F027E00C0
:10096800D3EF9400EE6480948040147D707C00ED99
:0F0978001D70011CED4C70F7EF1F70E41E80E145
:01098700224D
:1009A600E509B43C05E4F509050BE50BB43C05E4A3
:0D09B600F50B050AE50AB41803E4F50A2262
:1008000075A0FEE50A75F00A849009E01209617589
:10081000A0FDE50A12095B75A0FBE50B75F00A84E3
:1008200012096175A0F7E50B12095B75A0EFE509E8
:1008300075F00A8412096175A0DFE50975F00A8474
:0C084000E5F093F5807F027E000209685D
:1008980020B0147F057E0012096820B00A0509E51A
:1008A80009B43C03E4F50920B1147F057E00120960
:1008B8006820B10A050BE50BB43C03E4F50B20B244
:1008C800147F057E0012096820B20A050AE50AB4F9
:0608D8001803E4F50A22FA
:03000B000209885F
:10098800C0E0C0D0758C3C758AB07589010508E552
:0E09980008B414050509750800D0D0D0E0326F
:1009C300E50CB43C17E4F50C050EE50EB43C0DE460
:0D09D300F50E050DE50DB41803E4F50D2239
:1008DE0020B0147F057E0012096820B00A050CE5D1
:1008EE000CB43C03E4F50C20B1147F057E00120914
:1008FE006820B10A050EE50EB43C03E4F50E20B2F5
:10090E00147F057E0012096820B20A050DE50DB4AC
:06091E001803E4F50D22B0
:10084C0075A0FEE50D75F00A849009E0120961753A
:10085C00A0FDE50D12095B75A0FBE50E75F00A8491
:10086C0012096175A0F7E50E12095B75A0EFE50C96
:10087C0075F00A8412096175A0DFE50C75F00A8425
:0C088C00E5F093F5807F027E0002096811
:10092400758C3C758AB0758901D2AFD2A9D28C126C
:1009340009A61208981208002090091209C3120887
:10094400DE12084CE50CB509E6E50EB50BE1E50D44
:07095400B50ADCB2B780D840
:00000001FF
